{
  "address": "0x5FbDB2315678afecb367f032d93F642f64180aa3",
  "abi": [
    {
      "inputs": [
        {
          "internalType": "uint256[2]",
          "name": "_pA",
          "type": "uint256[2]"
        },
        {
          "internalType": "uint256[2][2]",
          "name": "_pB",
          "type": "uint256[2][2]"
        },
        {
          "internalType": "uint256[2]",
          "name": "_pC",
          "type": "uint256[2]"
        },
        {
          "internalType": "uint256[14]",
          "name": "_pubSignals",
          "type": "uint256[14]"
        }
      ],
      "name": "verifyProof",
      "outputs": [
        {
          "internalType": "bool",
          "name": "",
          "type": "bool"
        }
      ],
      "stateMutability": "view",
      "type": "function"
    }
  ],
  "transactionHash": "0x006d5bbb3bfa8871fe7ac6f872715e3a4e42d8d5783ac8b7d44af87da058896e",
  "args": [],
  "numDeployments": 1,
  "solcInputHash": "e5290f9a294269fb66334563efd934ea",
  "bytecode": "0x608060405234801561001057600080fd5b50610ad2806100206000396000f3fe608060405234801561001057600080fd5b506004361061002b5760003560e01c80638d15f88f14610030575b600080fd5b61004a600480360381019061004591906109fd565b610060565b6040516100579190610a81565b60405180910390f35b60006108a1565b7f30644e72e131a029b85045b68181585d97816a916871ca8d3c208c16d87cfd478110610098576000805260206000f35b50565b600060405183815284602082015285604082015260408160608360076107d05a03fa9150816100ce576000805260206000f35b825160408201526020830151606082015260408360808360066107d05a03fa9150816100fe576000805260206000f35b505050505050565b600060808601600087017f1db453a10d41b0f5095ac588dc99f91e8798fc60013953cc11e273ea7115de7d81527f156d4f34407af104051b1d7f005920b42d95c4b91b0d650a04e18b600e20580260208201526101a960008801357f20922091325d875a858be5d6ae7fabf72286dab6985c03ab3bdb7785ea63e9f87f0e2935b6d6508b76b1ca9009cce4e9ce77b18201be83bd94572df976b40d31f28461009b565b6101f960208801357f2b4ed344b28f82a60a4880b51c3007c9b551b001be3ae3b52ffa62126da148677f2bcfde5dc98565f310a06fd59158706c73f299cbd846592a5745aa96798d82c98461009b565b61024960408801357f0a19cd10b89867d66a3ce2609d76d6c8ddc682a7a33ccf67346a708457911d6b7f12c713d6719ef9ba344aa01e14ab34a5ebe342879011a7427ed60f064cffbd5b8461009b565b61029960608801357f2d023ce9fff7e5ab260615b1cb3c404c43216e8ed04390e610c1652d3d42ca1f7f198b932491276a8517f2e483b9e89cc903fa90f219a036e6069eb6cbc6c713208461009b565b6102e960808801357f2dda546c828ff17316bdd786ffbab12a2131349c4a8da829697c24a11659637e7f05634f865da258ec007238066bbe78cb71ec4b3ad0d77f96a540201629215d8b8461009b565b61033960a08801357f0fdda6a3ac1ea338882e496977674b35639751720fa5c0b15a7ec228eeb2a1bb7f297e322c42383b4fc5bb3861b4d1fa920d662a7d451c362d9204aee2f9d12cb58461009b565b61038960c08801357f270b1e3a7c08e0259c51c018c763c329a5bd17d3ffa9161f4ba3b2ddc209a4187f118e92d58efc9e0f4ea29e9539f60c51f56d1e17b34369e904e0c80b53594e388461009b565b6103d960e08801357f09789c37cef912ddd947df34eaff7c96a42ffa184c890b61df3d118dfdee8f247f0ad05491c831e82b1dcf8ce4ddbc7fcc5dfe0d3a36b958fa76747c0f71e559858461009b565b6104296101008801357f0ce380e0896bba1e5b880bf941e73acc3ffc1e4a54ad986a4da7cd997158110d7e1e2c3867f0a4508d83c1c045a26283fcf6e65ab8ae4a11d138f6ac218f00a28461009b565b61047a6101208801357f1bed17a77e385bcf0994ae8d8ae36a32c45cd7a1cda025ca1dc7b4a0dec6d7ee7f05fffe73b964efdbea96c47c7a26bebb5855fad90b5bb36d33ccf980939dd97b8461009b565b6104cb6101408801357f14ba1da74b578f75ce985a3b2ab68870c8044387021856a3bff001460d25380e7f015d5f7690eec6da39e13af070b7d9f8ca21c79fc31dba9036318dd6391765c78461009b565b61051c6101608801357f0edcbc45d0978c569efef488cb01fb485e129181db2edaeaf666d6ff0d5a0eec7f06e448908ca79d0b739e41ec9bfe3188ee629eaee11b3b1ca7bcf3e339a42f498461009b565b61056d6101808801357f294ad0cdd3c785ff94be3ac7e9363742aed8b3ae584f00c16c69f698cff2c5357f20e922b7231e6c28cd614fe3b405f9f89675be794a1c12c45cf6b457ca52570b8461009b565b6105be6101a08801357f1a32b7d8869f63861de3623b807a444dea0107005cb94de05870049c36f4472f7f1661dc35f5947e69f923c1c4b32f1043b851d7879d7d84929576859c2169c44d8461009b565b833582527f30644e72e131a029b85045b68181585d97816a916871ca8d3c208c16d87cfd4760208501357f30644e72e131a029b85045b68181585d97816a916871ca8d3c208c16d87cfd4703066020830152843560408301526020850135606083015260408501356080830152606085013560a08301527f1254bc8617236dae90400ca85b729b705e85350d4574255706b0d91c3b6767a960c08301527f1dc775b13c574bd0f8b7e848e0c4a71d6420ea0b4b1f21ddf602da98d57a0e4160e08301527f2f46e45e56114d39653e3b99ee1f264250f8a9062905c6cdaea9b18480296a356101008301527f2651877537724ad6e21d4b7369e5d3e130857789cf2d896536835e05dd27b6ae6101208301527f0f4d53879a446071222c5ae24c32c562902902cfbf84c9ed5d7bd587a2bb2ea66101408301527f157cc30eee27d03a42f73c2104c523a44aea72940b179481323c0a4938935c00610160830152600088015161018083015260206000018801516101a08301527f198e9393920d483a7260bfb731fb5d25f1aa493335a9e71297e485b7aef312c26101c08301527f1800deef121f1e76426a00665e5c4479674322d4f75edadd46debd5cd992f6ed6101e08301527f090689d0585ff075ec9e99ad690c3395bc4b313370b38ef355acdadcd122975b6102008301527f12c85ea5db8c6deb4aab71808dcb408fe3d1e7690c43d37b4ce6cc0166fa7daa610220830152853561024083015260208601356102608301527f0583b2d519950e404feb17cf642656363fec244b96ad87e0c0419fac2a6729496102808301527e0ebd85b6853a825e63c070f27f7dc368dffc6070ad058d52c361a6c51839a36102a08301527f15e5301ec43ad3834ac51f3a5d6fba97f80d3996aec7b93326dca6513b305ddf6102c08301527f1e9fe7e226aff01e5b59a52a1decb5ffaae8714257d531ba0c10947f5bfde5ac6102e08301526020826103008460086107d05a03fa82518116935050505095945050505050565b60405161038081016040526108b96000840135610067565b6108c66020840135610067565b6108d36040840135610067565b6108e06060840135610067565b6108ed6080840135610067565b6108fa60a0840135610067565b61090760c0840135610067565b61091460e0840135610067565b610922610100840135610067565b610930610120840135610067565b61093e610140840135610067565b61094c610160840135610067565b61095a610180840135610067565b6109686101a0840135610067565b6109766101c0840135610067565b610983818486888a610106565b8060005260206000f35b600080fd5b600080fd5b6000819050826020600202820111156109b3576109b2610992565b5b92915050565b6000819050826040600202820111156109d5576109d4610992565b5b92915050565b6000819050826020600e02820111156109f7576109f6610992565b5b92915050565b6000806000806102c08587031215610a1857610a1761098d565b5b6000610a2687828801610997565b9450506040610a37878288016109b9565b93505060c0610a4887828801610997565b925050610100610a5a878288016109db565b91505092959194509250565b60008115159050919050565b610a7b81610a66565b82525050565b6000602082019050610a966000830184610a72565b9291505056fea26469706673582212203fec525b3bcf543a9c0e05134a1f678ad4e18717df9fa9178d90affb36c968f864736f6c63430008140033",
  "devdoc": {
    "kind": "dev",
    "methods": {},
    "version": 1
  },
  "userdoc": {
    "kind": "user",
    "methods": {},
    "version": 1
  },
  "storageLayout": {
    "storage": [],
    "types": null
  }
}