{
  "address": "0xe7f1725E7734CE288F8367e1Bb143E90bb3F0512",
  "abi": [
    {
      "inputs": [
        {
          "internalType": "address",
          "name": "_verifierJSON",
          "type": "address"
        }
      ],
      "stateMutability": "nonpayable",
      "type": "constructor"
    },
    {
      "inputs": [
        {
          "internalType": "uint256[]",
          "name": "zkp",
          "type": "uint256[]"
        }
      ],
      "name": "commit",
      "outputs": [
        {
          "internalType": "uint256",
          "name": "",
          "type": "uint256"
        }
      ],
      "stateMutability": "nonpayable",
      "type": "function"
    },
    {
      "inputs": [],
      "name": "committer",
      "outputs": [
        {
          "internalType": "address",
          "name": "",
          "type": "address"
        }
      ],
      "stateMutability": "view",
      "type": "function"
    },
    {
      "inputs": [
        {
          "internalType": "uint256[]",
          "name": "path",
          "type": "uint256[]"
        },
        {
          "internalType": "uint256[]",
          "name": "zkp",
          "type": "uint256[]"
        }
      ],
      "name": "qBool",
      "outputs": [
        {
          "internalType": "bool",
          "name": "",
          "type": "bool"
        }
      ],
      "stateMutability": "view",
      "type": "function"
    },
    {
      "inputs": [
        {
          "internalType": "uint256[]",
          "name": "path",
          "type": "uint256[]"
        },
        {
          "internalType": "uint256[]",
          "name": "path2",
          "type": "uint256[]"
        },
        {
          "internalType": "uint256[]",
          "name": "zkp",
          "type": "uint256[]"
        }
      ],
      "name": "qCustom",
      "outputs": [
        {
          "internalType": "int256",
          "name": "",
          "type": "int256"
        }
      ],
      "stateMutability": "view",
      "type": "function"
    },
    {
      "inputs": [
        {
          "internalType": "uint256[]",
          "name": "path",
          "type": "uint256[]"
        },
        {
          "internalType": "uint256[]",
          "name": "zkp",
          "type": "uint256[]"
        }
      ],
      "name": "qFloat",
      "outputs": [
        {
          "internalType": "uint256[3]",
          "name": "",
          "type": "uint256[3]"
        }
      ],
      "stateMutability": "view",
      "type": "function"
    },
    {
      "inputs": [
        {
          "internalType": "uint256[]",
          "name": "path",
          "type": "uint256[]"
        },
        {
          "internalType": "uint256[]",
          "name": "zkp",
          "type": "uint256[]"
        }
      ],
      "name": "qInt",
      "outputs": [
        {
          "internalType": "int256",
          "name": "",
          "type": "int256"
        }
      ],
      "stateMutability": "view",
      "type": "function"
    },
    {
      "inputs": [
        {
          "internalType": "uint256[]",
          "name": "path",
          "type": "uint256[]"
        },
        {
          "internalType": "uint256[]",
          "name": "zkp",
          "type": "uint256[]"
        }
      ],
      "name": "qNull",
      "outputs": [
        {
          "internalType": "bool",
          "name": "",
          "type": "bool"
        }
      ],
      "stateMutability": "view",
      "type": "function"
    },
    {
      "inputs": [
        {
          "internalType": "uint256[]",
          "name": "path",
          "type": "uint256[]"
        },
        {
          "internalType": "uint256[]",
          "name": "zkp",
          "type": "uint256[]"
        }
      ],
      "name": "qRaw",
      "outputs": [
        {
          "internalType": "uint256[]",
          "name": "",
          "type": "uint256[]"
        }
      ],
      "stateMutability": "view",
      "type": "function"
    },
    {
      "inputs": [
        {
          "internalType": "uint256[]",
          "name": "path",
          "type": "uint256[]"
        },
        {
          "internalType": "uint256[]",
          "name": "zkp",
          "type": "uint256[]"
        }
      ],
      "name": "qString",
      "outputs": [
        {
          "internalType": "string",
          "name": "",
          "type": "string"
        }
      ],
      "stateMutability": "view",
      "type": "function"
    },
    {
      "inputs": [],
      "name": "root",
      "outputs": [
        {
          "internalType": "uint256",
          "name": "",
          "type": "uint256"
        }
      ],
      "stateMutability": "view",
      "type": "function"
    },
    {
      "inputs": [],
      "name": "verifierJSON",
      "outputs": [
        {
          "internalType": "address",
          "name": "",
          "type": "address"
        }
      ],
      "stateMutability": "view",
      "type": "function"
    },
    {
      "inputs": [],
      "name": "verifierRU",
      "outputs": [
        {
          "internalType": "address",
          "name": "",
          "type": "address"
        }
      ],
      "stateMutability": "view",
      "type": "function"
    }
  ],
  "transactionHash": "0x98708067a6564b50dba347fd2784da60337b8290b8d61bd8f1095e5ca89b779d",
  "args": [
    "0x5FbDB2315678afecb367f032d93F642f64180aa3"
  ],
  "numDeployments": 1,
  "solcInputHash": "94e08685aba75754727e16e3a643b531",
  "bytecode": "0x60806040523480156200001157600080fd5b5060405162002604380380620026048339818101604052810190620000379190620000e8565b806000806101000a81548173ffffffffffffffffffffffffffffffffffffffff021916908373ffffffffffffffffffffffffffffffffffffffff160217905550506200011a565b600080fd5b600073ffffffffffffffffffffffffffffffffffffffff82169050919050565b6000620000b08262000083565b9050919050565b620000c281620000a3565b8114620000ce57600080fd5b50565b600081519050620000e281620000b7565b92915050565b6000602082840312156200010157620001006200007e565b5b60006200011184828501620000d1565b91505092915050565b6124da806200012a6000396000f3fe608060405234801561001057600080fd5b50600436106100b45760003560e01c80637e232f9d116100715780637e232f9d146101c75780639ff73216146101f7578063b8aa6cb114610227578063d792668714610257578063e8357bed14610275578063ebf0c71714610293576100b4565b806312e8545f146100b957806359434d4a146100e95780635bc8e8f9146101195780637b86a97c146101375780637b870735146101675780637c47e8f114610197575b600080fd5b6100d360048036038101906100ce919061170e565b6102b1565b6040516100e091906117ce565b60405180910390f35b61010360048036038101906100fe91906117e9565b6102d4565b6040516101109190611841565b60405180910390f35b610121610426565b60405161012e919061189d565b60405180910390f35b610151600480360381019061014c91906118b8565b61044c565b60405161015e919061194b565b60405180910390f35b610181600480360381019061017c91906118b8565b61046d565b60405161018e919061194b565b60405180910390f35b6101b160048036038101906101ac91906118b8565b61048e565b6040516101be9190611a11565b60405180910390f35b6101e160048036038101906101dc91906118b8565b6104b6565b6040516101ee9190611aab565b60405180910390f35b610211600480360381019061020c91906118b8565b6104d8565b60405161021e91906117ce565b60405180910390f35b610241600480360381019061023c91906118b8565b6104f9565b60405161024e9190611b64565b60405180910390f35b61025f61051b565b60405161026c919061189d565b60405180910390f35b61027d61053f565b60405161028a919061189d565b60405180910390f35b61029b610565565b6040516102a89190611841565b60405180910390f35b6000806102be858461056b565b90506102ca84826105b5565b9150509392505050565b6000600354826009815181106102ed576102ec611b86565b5b602002602001015114610335576040517f08c379a000000000000000000000000000000000000000000000000000000000815260040161032c90611c01565b60405180910390fd5b600260009054906101000a900473ffffffffffffffffffffffffffffffffffffffff1673ffffffffffffffffffffffffffffffffffffffff163373ffffffffffffffffffffffffffffffffffffffff16146103c5576040517f08c379a00000000000000000000000000000000000000000000000000000000081526004016103bc90611c6d565b60405180910390fd5b816008815181106103d9576103d8611b86565b5b602002602001015160038190555061041b8263b9c6ea8760e01b600160009054906101000a900473ffffffffffffffffffffffffffffffffffffffff166105d6565b506003549050919050565b600260009054906101000a900473ffffffffffffffffffffffffffffffffffffffff1681565b600080610459848461056b565b9050610464816106cc565b91505092915050565b60008061047a848461056b565b905061048581610760565b91505092915050565b610496611549565b60006104a2848461056b565b90506104ad816107c8565b91505092915050565b606060006104c4848461056b565b90506104cf81610912565b91505092915050565b6000806104e5848461056b565b90506104f081610a79565b91505092915050565b60606000610507848461056b565b905061051281610b79565b91505092915050565b60008054906101000a900473ffffffffffffffffffffffffffffffffffffffff1681565b600160009054906101000a900473ffffffffffffffffffffffffffffffffffffffff1681565b60035481565b606061059f82638cbac0fa60e01b60008054906101000a900473ffffffffffffffffffffffffffffffffffffffff166105d6565b506105ad8383600580610be1565b905092915050565b6000806105c28484610fc0565b90506105cd81610a79565b91505092915050565b600080823b905060008111610620576040517f08c379a000000000000000000000000000000000000000000000000000000000815260040161061790611cd9565b60405180910390fd5b600060405186518060200260040180835287602084015260015b8260010181101561066157602081028a01516020820260040185015260018101905061063a565b5060208382602086018a5afa8061067757600080fd5b8351945050505050806106bf576040517f08c379a00000000000000000000000000000000000000000000000000000000081526004016106b690611d45565b60405180910390fd5b6001925050509392505050565b60006001826000815181106106e4576106e3611b86565b5b60200260200101511461072c576040517f08c379a000000000000000000000000000000000000000000000000000000000815260040161072390611db1565b60405180910390fd5b60018260018151811061074257610741611b86565b5b602002602001015114610756576000610759565b60015b9050919050565b6000808260008151811061077757610776611b86565b5b6020026020010151146107bf576040517f08c379a00000000000000000000000000000000000000000000000000000000081526004016107b690611e1d565b60405180910390fd5b60019050919050565b6107d0611549565b6002826000815181106107e6576107e5611b86565b5b6020026020010151148015610817575060008260028151811061080c5761080b611b86565b5b602002602001015114155b610856576040517f08c379a000000000000000000000000000000000000000000000000000000000815260040161084d90611e89565b60405180910390fd5b61085e611549565b8260018151811061087257610871611b86565b5b60200260200101518160006003811061088e5761088d611b86565b5b602002018181525050826002815181106108ab576108aa611b86565b5b6020026020010151816001600381106108c7576108c6611b86565b5b602002018181525050826003815181106108e4576108e3611b86565b5b602002602001015181600260038110610900576108ff611b86565b5b60200201818152505080915050919050565b606060038260008151811061092a57610929611b86565b5b602002602001015114610972576040517f08c379a000000000000000000000000000000000000000000000000000000000815260040161096990611ef5565b60405180910390fd5b60008260018151811061098857610987611b86565b5b602002602001015167ffffffffffffffff8111156109a9576109a8611595565b5b6040519080825280602002602001820160405280156109d75781602001602082028036833780820191505090505b50905060005b836001815181106109f1576109f0611b86565b5b6020026020010151811015610a615783600282610a0e9190611f44565b81518110610a1f57610a1e611b86565b5b6020026020010151828281518110610a3a57610a39611b86565b5b602002602001019060ff16908160ff16815250508080610a5990611f78565b9150506109dd565b506000610a6d82611146565b90508092505050919050565b6000600282600081518110610a9157610a90611b86565b5b6020026020010151148015610ac15750600082600281518110610ab757610ab6611b86565b5b6020026020010151145b610b00576040517f08c379a0000000000000000000000000000000000000000000000000000000008152600401610af79061200c565b60405180910390fd5b600182600181518110610b1657610b15611b86565b5b602002602001015114610b49577fffffffffffffffffffffffffffffffffffffffffffffffffffffffffffffffff610b4c565b60015b82600381518110610b6057610b5f611b86565b5b6020026020010151610b72919061202c565b9050919050565b6060600482600081518110610b9157610b90611b86565b5b602002602001015114610bd9576040517f08c379a0000000000000000000000000000000000000000000000000000000008152600401610bd0906120f0565b60405180910390fd5b819050919050565b606060035484601381518110610bfa57610bf9611b86565b5b602002602001015114610c42576040517f08c379a0000000000000000000000000000000000000000000000000000000008152600401610c399061215c565b60405180910390fd5b84600081518110610c5657610c55611b86565b5b602002602001015184600a8486610c6d9190611f44565b610c779190611f44565b81518110610c8857610c87611b86565b5b602002602001015114610cd0576040517f08c379a0000000000000000000000000000000000000000000000000000000008152600401610cc7906121c8565b60405180910390fd5b84600181518110610ce457610ce3611b86565b5b602002602001015184600b8486610cfb9190611f44565b610d059190611f44565b81518110610d1657610d15611b86565b5b602002602001015114610d5e576040517f08c379a0000000000000000000000000000000000000000000000000000000008152600401610d5590612234565b60405180910390fd5b600184600881518110610d7457610d73611b86565b5b602002602001015114610dbc576040517f08c379a0000000000000000000000000000000000000000000000000000000008152600401610db3906122a0565b60405180910390fd5b8183610dc89190611f44565b85511115610e0b576040517f08c379a0000000000000000000000000000000000000000000000000000000008152600401610e029061230c565b60405180910390fd5b6000600990505b600286516009610e229190611f44565b610e2c919061232c565b811015610ec857848181518110610e4657610e45611b86565b5b602002602001015186600783610e5c919061232c565b81518110610e6d57610e6c611b86565b5b602002602001015114610eb5576040517f08c379a0000000000000000000000000000000000000000000000000000000008152600401610eac906123ac565b60405180910390fd5b8080610ec090611f78565b915050610e12565b5060008267ffffffffffffffff811115610ee557610ee4611595565b5b604051908082528060200260200182016040528015610f135781602001602082028036833780820191505090505b5090506000846009610f259190611f44565b90505b83856009610f369190611f44565b610f409190611f44565b811015610fab57858181518110610f5a57610f59611b86565b5b602002602001015182866009610f709190611f44565b83610f7b919061232c565b81518110610f8c57610f8b611b86565b5b6020026020010181815250508080610fa390611f78565b915050610f28565b50610fb581611223565b915050949350505050565b6060600482600081518110610fd857610fd7611b86565b5b602002602001015114611020576040517f08c379a000000000000000000000000000000000000000000000000000000000815260040161101790612418565b60405180910390fd5b600061102b84611223565b90506000600190505b83518110156110fc5760008061104a83876113de565b9150915060008061105b838961149f565b91509150809450600060019050865185511461107a57600090506110db565b60005b87518110156110d95787818151811061109957611098611b86565b5b60200260200101518682815181106110b4576110b3611b86565b5b6020026020010151146110c657600091505b80806110d190611f78565b91505061107d565b505b600181036110f25782975050505050505050611140565b5050505050611034565b600061113d576040517f08c379a000000000000000000000000000000000000000000000000000000000815260040161113490612484565b60405180910390fd5b50505b92915050565b60606000825167ffffffffffffffff81111561116557611164611595565b5b6040519080825280601f01601f1916602001820160405280156111975781602001600182028036833780820191505090505b50905060005b8351811015611219578381815181106111b9576111b8611b86565b5b602002602001015160f81b8282815181106111d7576111d6611b86565b5b60200101907effffffffffffffffffffffffffffffffffffffffffffffffffffffffffffff1916908160001a905350808061121190611f78565b91505061119d565b5080915050919050565b60608060008060208501599350855184526020840160005b87518110156113c1576020810283015160008111156113b5576000816000806000805b600087111561127857600a8704965060018601955061125e565b5b60008611156113ae5760018603600a0a8504848061129657600195505b81156001821416156112a757600495505b600481036112b757600595508193505b600082116001821416156112f157600982036112d65760089350600395505b600982141582151516156112ec57600295508193505b600094505b6001811115611394576005810361132a57818e8c015260018403935060208e019d508361132957600094506001955060009350600092505b5b6005811461139357600185850303600a0a8202830192506001850194508385036113925783600a0a8d029c506003810361136457828d019c505b60038114611381578c8301925060009c50828e8c015260208e019d505b600094506001955060009350600092505b5b5b8160018903600a0a02870396506001880397505050611279565b5050505050505b5060018101905061123b565b506020840485528360200185016040525050505080915050919050565b606060006060602084016020860281015160018701965059925086865103835260208301818152602060005b8381101561147d5760208a02850151808385015260208301925060018b019a506001816114425760208c0287015161144157600290505b5b60005b8181101561146f5760208d028801518587015260208501945060018d019c50600181019050611445565b50505060018101905061140a565b5060208104855280602001850160405250505050808592509250509250929050565b60606000606060208401599150858551038252602082016020870282015160018801975060208183526000600183036114d757600190505b600283036114e457600390505b600383036114f957600160208b028601510190505b60005b818110156115265760208b028601518386015260208301925060018b019a506001810190506114fc565b506020820486528160200186016040525050505050808592509250509250929050565b6040518060600160405280600390602082028036833780820191505090505090565b6000604051905090565b600080fd5b600080fd5b600080fd5b6000601f19601f8301169050919050565b7f4e487b7100000000000000000000000000000000000000000000000000000000600052604160045260246000fd5b6115cd82611584565b810181811067ffffffffffffffff821117156115ec576115eb611595565b5b80604052505050565b60006115ff61156b565b905061160b82826115c4565b919050565b600067ffffffffffffffff82111561162b5761162a611595565b5b602082029050602081019050919050565b600080fd5b6000819050919050565b61165481611641565b811461165f57600080fd5b50565b6000813590506116718161164b565b92915050565b600061168a61168584611610565b6115f5565b905080838252602082019050602084028301858111156116ad576116ac61163c565b5b835b818110156116d657806116c28882611662565b8452602084019350506020810190506116af565b5050509392505050565b600082601f8301126116f5576116f461157f565b5b8135611705848260208601611677565b91505092915050565b60008060006060848603121561172757611726611575565b5b600084013567ffffffffffffffff8111156117455761174461157a565b5b611751868287016116e0565b935050602084013567ffffffffffffffff8111156117725761177161157a565b5b61177e868287016116e0565b925050604084013567ffffffffffffffff81111561179f5761179e61157a565b5b6117ab868287016116e0565b9150509250925092565b6000819050919050565b6117c8816117b5565b82525050565b60006020820190506117e360008301846117bf565b92915050565b6000602082840312156117ff576117fe611575565b5b600082013567ffffffffffffffff81111561181d5761181c61157a565b5b611829848285016116e0565b91505092915050565b61183b81611641565b82525050565b60006020820190506118566000830184611832565b92915050565b600073ffffffffffffffffffffffffffffffffffffffff82169050919050565b60006118878261185c565b9050919050565b6118978161187c565b82525050565b60006020820190506118b2600083018461188e565b92915050565b600080604083850312156118cf576118ce611575565b5b600083013567ffffffffffffffff8111156118ed576118ec61157a565b5b6118f9858286016116e0565b925050602083013567ffffffffffffffff81111561191a5761191961157a565b5b611926858286016116e0565b9150509250929050565b60008115159050919050565b61194581611930565b82525050565b6000602082019050611960600083018461193c565b92915050565b600060039050919050565b600081905092915050565b6000819050919050565b61198f81611641565b82525050565b60006119a18383611986565b60208301905092915050565b6000602082019050919050565b6119c381611966565b6119cd8184611971565b92506119d88261197c565b8060005b83811015611a095781516119f08782611995565b96506119fb836119ad565b9250506001810190506119dc565b505050505050565b6000606082019050611a2660008301846119ba565b92915050565b600081519050919050565b600082825260208201905092915050565b60005b83811015611a66578082015181840152602081019050611a4b565b60008484015250505050565b6000611a7d82611a2c565b611a878185611a37565b9350611a97818560208601611a48565b611aa081611584565b840191505092915050565b60006020820190508181036000830152611ac58184611a72565b905092915050565b600081519050919050565b600082825260208201905092915050565b6000819050602082019050919050565b6000602082019050919050565b6000611b1182611acd565b611b1b8185611ad8565b9350611b2683611ae9565b8060005b83811015611b57578151611b3e8882611995565b9750611b4983611af9565b925050600181019050611b2a565b5085935050505092915050565b60006020820190508181036000830152611b7e8184611b06565b905092915050565b7f4e487b7100000000000000000000000000000000000000000000000000000000600052603260045260246000fd5b7f77726f6e67206d65726b6c6520726f6f74000000000000000000000000000000600082015250565b6000611beb601183611a37565b9150611bf682611bb5565b602082019050919050565b60006020820190508181036000830152611c1a81611bde565b9050919050565b7f73656e646572206973206e6f7420636f6d6d6974746572000000000000000000600082015250565b6000611c57601783611a37565b9150611c6282611c21565b602082019050919050565b60006020820190508181036000830152611c8681611c4a565b9050919050565b7f636f6e747261637420646f65736e277420657869737400000000000000000000600082015250565b6000611cc3601683611a37565b9150611cce82611c8d565b602082019050919050565b60006020820190508181036000830152611cf281611cb6565b9050919050565b7f696e76616c69642070726f6f6600000000000000000000000000000000000000600082015250565b6000611d2f600d83611a37565b9150611d3a82611cf9565b602082019050919050565b60006020820190508181036000830152611d5e81611d22565b9050919050565b7f6e6f7420626f6f6c000000000000000000000000000000000000000000000000600082015250565b6000611d9b600883611a37565b9150611da682611d65565b602082019050919050565b60006020820190508181036000830152611dca81611d8e565b9050919050565b7f6e6f74206e756c6c000000000000000000000000000000000000000000000000600082015250565b6000611e07600883611a37565b9150611e1282611dd1565b602082019050919050565b60006020820190508181036000830152611e3681611dfa565b9050919050565b7f6e6f7420666c6f61740000000000000000000000000000000000000000000000600082015250565b6000611e73600983611a37565b9150611e7e82611e3d565b602082019050919050565b60006020820190508181036000830152611ea281611e66565b9050919050565b7f6e6f7420737472696e6700000000000000000000000000000000000000000000600082015250565b6000611edf600a83611a37565b9150611eea82611ea9565b602082019050919050565b60006020820190508181036000830152611f0e81611ed2565b9050919050565b7f4e487b7100000000000000000000000000000000000000000000000000000000600052601160045260246000fd5b6000611f4f82611641565b9150611f5a83611641565b9250828201905080821115611f7257611f71611f15565b5b92915050565b6000611f8382611641565b91507fffffffffffffffffffffffffffffffffffffffffffffffffffffffffffffffff8203611fb557611fb4611f15565b5b600182019050919050565b7f6e6f7420696e7400000000000000000000000000000000000000000000000000600082015250565b6000611ff6600783611a37565b915061200182611fc0565b602082019050919050565b6000602082019050818103600083015261202581611fe9565b9050919050565b6000612037826117b5565b9150612042836117b5565b9250828202612050816117b5565b91507f8000000000000000000000000000000000000000000000000000000000000000841460008412161561208857612087611f15565b5b828205841483151761209d5761209c611f15565b5b5092915050565b7f6e6f74206f626a656374206f7220617272617900000000000000000000000000600082015250565b60006120da601383611a37565b91506120e5826120a4565b602082019050919050565b60006020820190508181036000830152612109816120cd565b9050919050565b7f726f6f74206d69736d6174636800000000000000000000000000000000000000600082015250565b6000612146600d83611a37565b915061215182612110565b602082019050919050565b6000602082019050818103600083015261217581612139565b9050919050565b7f77726f6e6720636f6c6c656374696f6e00000000000000000000000000000000600082015250565b60006121b2601083611a37565b91506121bd8261217c565b602082019050919050565b600060208201905081810360008301526121e1816121a5565b9050919050565b7f77726f6e6720646f630000000000000000000000000000000000000000000000600082015250565b600061221e600983611a37565b9150612229826121e8565b602082019050919050565b6000602082019050818103600083015261224d81612211565b9050919050565b7f76616c756520646f65736e277420657869737400000000000000000000000000600082015250565b600061228a601383611a37565b915061229582612254565b602082019050919050565b600060208201905081810360008301526122b98161227d565b9050919050565b7f7061746820746f6f206c6f6e6700000000000000000000000000000000000000600082015250565b60006122f6600d83611a37565b9150612301826122c0565b602082019050919050565b60006020820190508181036000830152612325816122e9565b9050919050565b600061233782611641565b915061234283611641565b925082820390508181111561235a57612359611f15565b5b92915050565b7f77726f6e67207061746800000000000000000000000000000000000000000000600082015250565b6000612396600a83611a37565b91506123a182612360565b602082019050919050565b600060208201905081810360008301526123c581612389565b9050919050565b7f6e6f74207261772076616c756500000000000000000000000000000000000000600082015250565b6000612402600d83611a37565b915061240d826123cc565b602082019050919050565b60006020820190508181036000830152612431816123f5565b9050919050565b7f76616c7565206e6f7420666f756e640000000000000000000000000000000000600082015250565b600061246e600f83611a37565b915061247982612438565b602082019050919050565b6000602082019050818103600083015261249d81612461565b905091905056fea264697066735822122098d86d3a717860e754e625b2f7d11a2e1952c5896748f125933214b80b364a9064736f6c63430008140033",
  "devdoc": {
    "kind": "dev",
    "methods": {},
    "version": 1
  },
  "userdoc": {
    "kind": "user",
    "methods": {},
    "version": 1
  },
  "storageLayout": {
    "storage": [
      {
        "astId": 1184,
        "contract": "contracts/Json.sol:Json",
        "label": "verifierJSON",
        "offset": 0,
        "slot": "0",
        "type": "t_address"
      },
      {
        "astId": 2001,
        "contract": "contracts/Json.sol:Json",
        "label": "verifierRU",
        "offset": 0,
        "slot": "1",
        "type": "t_address"
      },
      {
        "astId": 2003,
        "contract": "contracts/Json.sol:Json",
        "label": "committer",
        "offset": 0,
        "slot": "2",
        "type": "t_address"
      },
      {
        "astId": 2005,
        "contract": "contracts/Json.sol:Json",
        "label": "root",
        "offset": 0,
        "slot": "3",
        "type": "t_uint256"
      }
    ],
    "types": {
      "t_address": {
        "encoding": "inplace",
        "label": "address",
        "numberOfBytes": "20"
      },
      "t_uint256": {
        "encoding": "inplace",
        "label": "uint256",
        "numberOfBytes": "32"
      }
    }
  }
}